{
  "_format": "hh-sol-artifact-1",
  "contractName": "CarbonNFT",
  "sourceName": "contracts/CarbonNFT.sol",
  "abi": [
    {
      "anonymous": false,
      "inputs": [
        {
          "indexed": true,
          "internalType": "address",
          "name": "owner",
          "type": "address"
        },
        {
          "indexed": true,
          "internalType": "address",
          "name": "approved",
          "type": "address"
        },
        {
          "indexed": true,
          "internalType": "uint256",
          "name": "tokenId",
          "type": "uint256"
        }
      ],
      "name": "Approval",
      "type": "event"
    },
    {
      "anonymous": false,
      "inputs": [
        {
          "indexed": true,
          "internalType": "address",
          "name": "owner",
          "type": "address"
        },
        {
          "indexed": true,
          "internalType": "address",
          "name": "operator",
          "type": "address"
        },
        {
          "indexed": false,
          "internalType": "bool",
          "name": "approved",
          "type": "bool"
        }
      ],
      "name": "ApprovalForAll",
      "type": "event"
    },
    {
      "anonymous": false,
      "inputs": [
        {
          "indexed": false,
          "internalType": "uint8",
          "name": "version",
          "type": "uint8"
        }
      ],
      "name": "Initialized",
      "type": "event"
    },
    {
      "anonymous": false,
      "inputs": [
        {
          "indexed": true,
          "internalType": "address",
          "name": "previousOwner",
          "type": "address"
        },
        {
          "indexed": true,
          "internalType": "address",
          "name": "newOwner",
          "type": "address"
        }
      ],
      "name": "OwnershipTransferred",
      "type": "event"
    },
    {
      "anonymous": false,
      "inputs": [
        {
          "indexed": false,
          "internalType": "address",
          "name": "account",
          "type": "address"
        }
      ],
      "name": "Paused",
      "type": "event"
    },
    {
      "anonymous": false,
      "inputs": [
        {
          "indexed": true,
          "internalType": "address",
          "name": "from",
          "type": "address"
        },
        {
          "indexed": true,
          "internalType": "address",
          "name": "to",
          "type": "address"
        },
        {
          "indexed": true,
          "internalType": "uint256",
          "name": "tokenId",
          "type": "uint256"
        }
      ],
      "name": "Transfer",
      "type": "event"
    },
    {
      "anonymous": false,
      "inputs": [
        {
          "indexed": false,
          "internalType": "address",
          "name": "account",
          "type": "address"
        }
      ],
      "name": "Unpaused",
      "type": "event"
    },
    {
      "inputs": [
        {
          "internalType": "address",
          "name": "to",
          "type": "address"
        },
        {
          "internalType": "uint256",
          "name": "tokenId",
          "type": "uint256"
        }
      ],
      "name": "approve",
      "outputs": [],
      "stateMutability": "nonpayable",
      "type": "function"
    },
    {
      "inputs": [
        {
          "internalType": "address",
          "name": "owner",
          "type": "address"
        }
      ],
      "name": "balanceOf",
      "outputs": [
        {
          "internalType": "uint256",
          "name": "",
          "type": "uint256"
        }
      ],
      "stateMutability": "view",
      "type": "function"
    },
    {
      "inputs": [],
      "name": "getAccmulatedProjectValue",
      "outputs": [
        {
          "internalType": "uint256",
          "name": "",
          "type": "uint256"
        }
      ],
      "stateMutability": "view",
      "type": "function"
    },
    {
      "inputs": [
        {
          "internalType": "uint256",
          "name": "tokenId",
          "type": "uint256"
        }
      ],
      "name": "getApproved",
      "outputs": [
        {
          "internalType": "address",
          "name": "",
          "type": "address"
        }
      ],
      "stateMutability": "view",
      "type": "function"
    },
    {
      "inputs": [],
      "name": "getBackers",
      "outputs": [
        {
          "internalType": "uint256",
          "name": "",
          "type": "uint256"
        }
      ],
      "stateMutability": "view",
      "type": "function"
    },
    {
      "inputs": [],
      "name": "getRatePerNFT",
      "outputs": [
        {
          "internalType": "uint256",
          "name": "",
          "type": "uint256"
        }
      ],
      "stateMutability": "view",
      "type": "function"
    },
    {
      "inputs": [],
      "name": "getTotalProjectValue",
      "outputs": [
        {
          "internalType": "uint256",
          "name": "",
          "type": "uint256"
        }
      ],
      "stateMutability": "view",
      "type": "function"
    },
    {
      "inputs": [],
      "name": "getTotalSupply",
      "outputs": [
        {
          "internalType": "uint256",
          "name": "",
          "type": "uint256"
        }
      ],
      "stateMutability": "view",
      "type": "function"
    },
    {
      "inputs": [
        {
          "internalType": "address",
          "name": "",
          "type": "address"
        }
      ],
      "name": "holderData",
      "outputs": [
        {
          "internalType": "uint256",
          "name": "",
          "type": "uint256"
        }
      ],
      "stateMutability": "view",
      "type": "function"
    },
    {
      "inputs": [],
      "name": "initialize",
      "outputs": [],
      "stateMutability": "nonpayable",
      "type": "function"
    },
    {
      "inputs": [
        {
          "internalType": "address",
          "name": "owner",
          "type": "address"
        },
        {
          "internalType": "address",
          "name": "operator",
          "type": "address"
        }
      ],
      "name": "isApprovedForAll",
      "outputs": [
        {
          "internalType": "bool",
          "name": "",
          "type": "bool"
        }
      ],
      "stateMutability": "view",
      "type": "function"
    },
    {
      "inputs": [
        {
          "internalType": "address",
          "name": "tokenAddress",
          "type": "address"
        },
        {
          "internalType": "uint256",
          "name": "noOfNFT",
          "type": "uint256"
        }
      ],
      "name": "mintNFTs",
      "outputs": [],
      "stateMutability": "nonpayable",
      "type": "function"
    },
    {
      "inputs": [],
      "name": "name",
      "outputs": [
        {
          "internalType": "string",
          "name": "",
          "type": "string"
        }
      ],
      "stateMutability": "view",
      "type": "function"
    },
    {
      "inputs": [],
      "name": "owner",
      "outputs": [
        {
          "internalType": "address",
          "name": "",
          "type": "address"
        }
      ],
      "stateMutability": "view",
      "type": "function"
    },
    {
      "inputs": [
        {
          "internalType": "uint256",
          "name": "tokenId",
          "type": "uint256"
        }
      ],
      "name": "ownerOf",
      "outputs": [
        {
          "internalType": "address",
          "name": "",
          "type": "address"
        }
      ],
      "stateMutability": "view",
      "type": "function"
    },
    {
      "inputs": [],
      "name": "paused",
      "outputs": [
        {
          "internalType": "bool",
          "name": "",
          "type": "bool"
        }
      ],
      "stateMutability": "view",
      "type": "function"
    },
    {
      "inputs": [],
      "name": "renounceOwnership",
      "outputs": [],
      "stateMutability": "nonpayable",
      "type": "function"
    },
    {
      "inputs": [
        {
          "internalType": "address",
          "name": "from",
          "type": "address"
        },
        {
          "internalType": "address",
          "name": "to",
          "type": "address"
        },
        {
          "internalType": "uint256",
          "name": "tokenId",
          "type": "uint256"
        }
      ],
      "name": "safeTransferFrom",
      "outputs": [],
      "stateMutability": "nonpayable",
      "type": "function"
    },
    {
      "inputs": [
        {
          "internalType": "address",
          "name": "from",
          "type": "address"
        },
        {
          "internalType": "address",
          "name": "to",
          "type": "address"
        },
        {
          "internalType": "uint256",
          "name": "tokenId",
          "type": "uint256"
        },
        {
          "internalType": "bytes",
          "name": "_data",
          "type": "bytes"
        }
      ],
      "name": "safeTransferFrom",
      "outputs": [],
      "stateMutability": "nonpayable",
      "type": "function"
    },
    {
      "inputs": [
        {
          "internalType": "address",
          "name": "operator",
          "type": "address"
        },
        {
          "internalType": "bool",
          "name": "approved",
          "type": "bool"
        }
      ],
      "name": "setApprovalForAll",
      "outputs": [],
      "stateMutability": "nonpayable",
      "type": "function"
    },
    {
      "inputs": [
        {
          "internalType": "uint256",
          "name": "_rate",
          "type": "uint256"
        },
        {
          "internalType": "uint256",
          "name": "dec",
          "type": "uint256"
        },
        {
          "internalType": "uint256",
          "name": "_totalSupply",
          "type": "uint256"
        }
      ],
      "name": "setRatePerNFTAndTotalSupply",
      "outputs": [],
      "stateMutability": "nonpayable",
      "type": "function"
    },
    {
      "inputs": [
        {
          "internalType": "bytes4",
          "name": "interfaceId",
          "type": "bytes4"
        }
      ],
      "name": "supportsInterface",
      "outputs": [
        {
          "internalType": "bool",
          "name": "",
          "type": "bool"
        }
      ],
      "stateMutability": "view",
      "type": "function"
    },
    {
      "inputs": [],
      "name": "symbol",
      "outputs": [
        {
          "internalType": "string",
          "name": "",
          "type": "string"
        }
      ],
      "stateMutability": "view",
      "type": "function"
    },
    {
      "inputs": [
        {
          "internalType": "uint256",
          "name": "tokenId",
          "type": "uint256"
        }
      ],
      "name": "tokenURI",
      "outputs": [
        {
          "internalType": "string",
          "name": "",
          "type": "string"
        }
      ],
      "stateMutability": "view",
      "type": "function"
    },
    {
      "inputs": [
        {
          "internalType": "address",
          "name": "from",
          "type": "address"
        },
        {
          "internalType": "address",
          "name": "to",
          "type": "address"
        },
        {
          "internalType": "uint256",
          "name": "tokenId",
          "type": "uint256"
        }
      ],
      "name": "transferFrom",
      "outputs": [],
      "stateMutability": "nonpayable",
      "type": "function"
    },
    {
      "inputs": [
        {
          "internalType": "address",
          "name": "newOwner",
          "type": "address"
        }
      ],
      "name": "transferOwnership",
      "outputs": [],
      "stateMutability": "nonpayable",
      "type": "function"
    }
  ],
  "bytecode": "0x608060405234801561001057600080fd5b50613fc4806100206000396000f3fe608060405234801561001057600080fd5b506004361061018e5760003560e01c80638129fc1c116100de578063bef2f71c11610097578063d9ad30d011610071578063d9ad30d01461045f578063e0158abe1461047d578063e985e9c514610499578063f2fde38b146104c95761018e565b8063bef2f71c146103f3578063c4e41b2214610411578063c87b56dd1461042f5761018e565b80638129fc1c146103595780638da5cb5b1461036357806395d89b4114610381578063960bb1fa1461039f578063a22cb465146103bb578063b88d4fde146103d75761018e565b8063323ba9681161014b5780636352211e116101255780636352211e146102bf5780636fd61231146102ef57806370a082311461031f578063715018a61461034f5761018e565b8063323ba9681461026757806342842e0e146102855780635c975abb146102a15761018e565b806301ffc9a71461019357806306fdde03146101c3578063081812fc146101e1578063095ea7b31461021157806323b872dd1461022d57806330f3e3da14610249575b600080fd5b6101ad60048036038101906101a89190612a23565b6104e5565b6040516101ba9190612fd2565b60405180910390f35b6101cb6105c7565b6040516101d89190613008565b60405180910390f35b6101fb60048036038101906101f69190612a7d565b610659565b6040516102089190612f34565b60405180910390f35b61022b600480360381019061022691906129b6565b6106de565b005b610247600480360381019061024291906128a0565b6107f6565b005b610251610856565b60405161025e919061330a565b60405180910390f35b61026f61087b565b60405161027c919061330a565b60405180910390f35b61029f600480360381019061029a91906128a0565b61089b565b005b6102a96108bb565b6040516102b69190612fd2565b60405180910390f35b6102d960048036038101906102d49190612a7d565b6108d2565b6040516102e69190612f34565b60405180910390f35b61030960048036038101906103049190612833565b610984565b604051610316919061330a565b60405180910390f35b61033960048036038101906103349190612833565b61099d565b604051610346919061330a565b60405180910390f35b610357610a55565b005b610361610add565b005b61036b610c0f565b6040516103789190612f34565b60405180910390f35b610389610c39565b6040516103969190613008565b60405180910390f35b6103b960048036038101906103b49190612aaa565b610ccb565b005b6103d560048036038101906103d09190612976565b610dc9565b005b6103f160048036038101906103ec91906128f3565b610ddf565b005b6103fb610e41565b604051610408919061330a565b60405180910390f35b610419610e5a565b604051610426919061330a565b60405180910390f35b61044960048036038101906104449190612a7d565b610e65565b6040516104569190613008565b60405180910390f35b610467610fb8565b604051610474919061330a565b60405180910390f35b610497600480360381019061049291906129b6565b610fc3565b005b6104b360048036038101906104ae9190612860565b61122c565b6040516104c09190612fd2565b60405180910390f35b6104e360048036038101906104de9190612833565b6112c1565b005b60007f80ac58cd000000000000000000000000000000000000000000000000000000007bffffffffffffffffffffffffffffffffffffffffffffffffffffffff1916827bffffffffffffffffffffffffffffffffffffffffffffffffffffffff191614806105b057507f5b5e139f000000000000000000000000000000000000000000000000000000007bffffffffffffffffffffffffffffffffffffffffffffffffffffffff1916827bffffffffffffffffffffffffffffffffffffffffffffffffffffffff1916145b806105c057506105bf826113b9565b5b9050919050565b606060fb80546105d69061374f565b80601f01602080910402602001604051908101604052809291908181526020018280546106029061374f565b801561064f5780601f106106245761010080835404028352916020019161064f565b820191906000526020600020905b81548152906001019060200180831161063257829003601f168201915b5050505050905090565b600061066482611423565b6106a3576040517f08c379a000000000000000000000000000000000000000000000000000000000815260040161069a9061322a565b60405180910390fd5b60ff600083815260200190815260200160002060009054906101000a900473ffffffffffffffffffffffffffffffffffffffff169050919050565b60006106e9826108d2565b90508073ffffffffffffffffffffffffffffffffffffffff168373ffffffffffffffffffffffffffffffffffffffff16141561075a576040517f08c379a00000000000000000000000000000000000000000000000000000000081526004016107519061328a565b60405180910390fd5b8073ffffffffffffffffffffffffffffffffffffffff1661077961148f565b73ffffffffffffffffffffffffffffffffffffffff1614806107a857506107a7816107a261148f565b61122c565b5b6107e7576040517f08c379a00000000000000000000000000000000000000000000000000000000081526004016107de9061314a565b60405180910390fd5b6107f18383611497565b505050565b61080761080161148f565b82611550565b610846576040517f08c379a000000000000000000000000000000000000000000000000000000000815260040161083d906132aa565b60405180910390fd5b61085183838361162e565b505050565b6000670de0b6b3a764000061086c610162611895565b61087691906135b6565b905090565b60006101605461088c61015f611895565b61089691906135b6565b905090565b6108b683838360405180602001604052806000815250610ddf565b505050565b6000609760009054906101000a900460ff16905090565b60008060fd600084815260200190815260200160002060009054906101000a900473ffffffffffffffffffffffffffffffffffffffff169050600073ffffffffffffffffffffffffffffffffffffffff168173ffffffffffffffffffffffffffffffffffffffff16141561097b576040517f08c379a00000000000000000000000000000000000000000000000000000000081526004016109729061318a565b60405180910390fd5b80915050919050565b6101636020528060005260406000206000915090505481565b60008073ffffffffffffffffffffffffffffffffffffffff168273ffffffffffffffffffffffffffffffffffffffff161415610a0e576040517f08c379a0000000000000000000000000000000000000000000000000000000008152600401610a059061316a565b60405180910390fd5b60fe60008373ffffffffffffffffffffffffffffffffffffffff1673ffffffffffffffffffffffffffffffffffffffff168152602001908152602001600020549050919050565b610a5d61148f565b73ffffffffffffffffffffffffffffffffffffffff16610a7b610c0f565b73ffffffffffffffffffffffffffffffffffffffff1614610ad1576040517f08c379a0000000000000000000000000000000000000000000000000000000008152600401610ac89061324a565b60405180910390fd5b610adb60006118a3565b565b6000610ae96001611969565b90508015610b0d576001600060016101000a81548160ff0219169083151502179055505b610b816040518060400160405280601081526020017f4768616e61205261696e666f72657374000000000000000000000000000000008152506040518060400160405280600381526020017f4748520000000000000000000000000000000000000000000000000000000000815250611a59565b610b89611ab6565b610b91611b0f565b610b99611b68565b600061016081905550600061016181905550610bb3611bc1565b8015610c0c5760008060016101000a81548160ff0219169083151502179055507f7f26b83ff96e1f2b6a682f133852f6798a09c465da95921460cefb38474024986001604051610c039190612fed565b60405180910390a15b50565b6000603360009054906101000a900473ffffffffffffffffffffffffffffffffffffffff16905090565b606060fc8054610c489061374f565b80601f0160208091040260200160405190810160405280929190818152602001828054610c749061374f565b8015610cc15780601f10610c9657610100808354040283529160200191610cc1565b820191906000526020600020905b815481529060010190602001808311610ca457829003601f168201915b5050505050905090565b610cd361148f565b73ffffffffffffffffffffffffffffffffffffffff16610cf1610c0f565b73ffffffffffffffffffffffffffffffffffffffff1614610d47576040517f08c379a0000000000000000000000000000000000000000000000000000000008152600401610d3e9061324a565b60405180910390fd5b60026065541415610d8d576040517f08c379a0000000000000000000000000000000000000000000000000000000008152600401610d84906132ea565b60405180910390fd5b600260658190555081600a610da29190613498565b83610dad91906135b6565b6101608190555080610161819055506001606581905550505050565b610ddb610dd461148f565b8383611c64565b5050565b610df0610dea61148f565b83611550565b610e2f576040517f08c379a0000000000000000000000000000000000000000000000000000000008152600401610e26906132aa565b60405180910390fd5b610e3b84848484611dd2565b50505050565b60006101605461016154610e5591906135b6565b905090565b600061016154905090565b6060610e7082611423565b610eaf576040517f08c379a0000000000000000000000000000000000000000000000000000000008152600401610ea69061320a565b60405180910390fd5b600061012d60008481526020019081526020016000208054610ed09061374f565b80601f0160208091040260200160405190810160405280929190818152602001828054610efc9061374f565b8015610f495780601f10610f1e57610100808354040283529160200191610f49565b820191906000526020600020905b815481529060010190602001808311610f2c57829003601f168201915b505050505090506000610f5a611e2e565b9050600081511415610f70578192505050610fb3565b600082511115610fa5578082604051602001610f8d929190612f10565b60405160208183030381529060405292505050610fb3565b610fae84611e45565b925050505b919050565b600061016054905090565b60026065541415611009576040517f08c379a0000000000000000000000000000000000000000000000000000000008152600401611000906132ea565b60405180910390fd5b6002606581905550610161548161102161015f611895565b61102b91906133be565b111561106c576040517f08c379a0000000000000000000000000000000000000000000000000000000008152600401611063906131aa565b60405180910390fd5b611074611eec565b8173ffffffffffffffffffffffffffffffffffffffff166323b872dd33611099610c0f565b61016054856110a891906135b6565b6040518463ffffffff1660e01b81526004016110c693929190612f4f565b602060405180830381600087803b1580156110e057600080fd5b505af11580156110f4573d6000803e3d6000fd5b505050506040513d601f19601f8201168201806040525081019061111891906129f6565b50600061016360003373ffffffffffffffffffffffffffffffffffffffff1673ffffffffffffffffffffffffffffffffffffffff16815260200190815260200160002054141561116e5761116d610162611f8e565b5b8061016360003373ffffffffffffffffffffffffffffffffffffffff1673ffffffffffffffffffffffffffffffffffffffff16815260200190815260200160002060008282546111be91906133be565b9250508190555060005b81811015611202576111db61015f611f8e565b6111ef336111ea61015f611895565b611fa4565b80806111fa906137b2565b9150506111c8565b506101615461121261015f611895565b146112205761121f611bc1565b5b60016065819055505050565b600061010060008473ffffffffffffffffffffffffffffffffffffffff1673ffffffffffffffffffffffffffffffffffffffff16815260200190815260200160002060008373ffffffffffffffffffffffffffffffffffffffff1673ffffffffffffffffffffffffffffffffffffffff16815260200190815260200160002060009054906101000a900460ff16905092915050565b6112c961148f565b73ffffffffffffffffffffffffffffffffffffffff166112e7610c0f565b73ffffffffffffffffffffffffffffffffffffffff161461133d576040517f08c379a00000000000000000000000000000000000000000000000000000000081526004016113349061324a565b60405180910390fd5b600073ffffffffffffffffffffffffffffffffffffffff168173ffffffffffffffffffffffffffffffffffffffff1614156113ad576040517f08c379a00000000000000000000000000000000000000000000000000000000081526004016113a49061306a565b60405180910390fd5b6113b6816118a3565b50565b60007f01ffc9a7000000000000000000000000000000000000000000000000000000007bffffffffffffffffffffffffffffffffffffffffffffffffffffffff1916827bffffffffffffffffffffffffffffffffffffffffffffffffffffffff1916149050919050565b60008073ffffffffffffffffffffffffffffffffffffffff1660fd600084815260200190815260200160002060009054906101000a900473ffffffffffffffffffffffffffffffffffffffff1673ffffffffffffffffffffffffffffffffffffffff1614159050919050565b600033905090565b8160ff600083815260200190815260200160002060006101000a81548173ffffffffffffffffffffffffffffffffffffffff021916908373ffffffffffffffffffffffffffffffffffffffff160217905550808273ffffffffffffffffffffffffffffffffffffffff1661150a836108d2565b73ffffffffffffffffffffffffffffffffffffffff167f8c5be1e5ebec7d5bd14f71427d1e84f3dd0314c0f7b2291e5b200ac8c7c3b92560405160405180910390a45050565b600061155b82611423565b61159a576040517f08c379a00000000000000000000000000000000000000000000000000000000081526004016115919061310a565b60405180910390fd5b60006115a5836108d2565b90508073ffffffffffffffffffffffffffffffffffffffff168473ffffffffffffffffffffffffffffffffffffffff1614806115e757506115e6818561122c565b5b8061162557508373ffffffffffffffffffffffffffffffffffffffff1661160d84610659565b73ffffffffffffffffffffffffffffffffffffffff16145b91505092915050565b8273ffffffffffffffffffffffffffffffffffffffff1661164e826108d2565b73ffffffffffffffffffffffffffffffffffffffff16146116a4576040517f08c379a000000000000000000000000000000000000000000000000000000000815260040161169b9061308a565b60405180910390fd5b600073ffffffffffffffffffffffffffffffffffffffff168273ffffffffffffffffffffffffffffffffffffffff161415611714576040517f08c379a000000000000000000000000000000000000000000000000000000000815260040161170b906130ca565b60405180910390fd5b61171f83838361217e565b61172a600082611497565b600160fe60008573ffffffffffffffffffffffffffffffffffffffff1673ffffffffffffffffffffffffffffffffffffffff168152602001908152602001600020600082825461177a9190613610565b92505081905550600160fe60008473ffffffffffffffffffffffffffffffffffffffff1673ffffffffffffffffffffffffffffffffffffffff16815260200190815260200160002060008282546117d191906133be565b925050819055508160fd600083815260200190815260200160002060006101000a81548173ffffffffffffffffffffffffffffffffffffffff021916908373ffffffffffffffffffffffffffffffffffffffff160217905550808273ffffffffffffffffffffffffffffffffffffffff168473ffffffffffffffffffffffffffffffffffffffff167fddf252ad1be2c89b69c2b068fc378daa952ba7f163c4a11628f55a4df523b3ef60405160405180910390a46118908383836121d6565b505050565b600081600001549050919050565b6000603360009054906101000a900473ffffffffffffffffffffffffffffffffffffffff16905081603360006101000a81548173ffffffffffffffffffffffffffffffffffffffff021916908373ffffffffffffffffffffffffffffffffffffffff1602179055508173ffffffffffffffffffffffffffffffffffffffff168173ffffffffffffffffffffffffffffffffffffffff167f8be0079c531659141344cd1fd0a4f28419497f9722a3daafe3b4186f6b6457e060405160405180910390a35050565b60008060019054906101000a900460ff16156119e05760018260ff161480156119985750611996306121db565b155b6119d7576040517f08c379a00000000000000000000000000000000000000000000000000000000081526004016119ce906131ca565b60405180910390fd5b60009050611a54565b8160ff1660008054906101000a900460ff1660ff1610611a35576040517f08c379a0000000000000000000000000000000000000000000000000000000008152600401611a2c906131ca565b60405180910390fd5b816000806101000a81548160ff021916908360ff160217905550600190505b919050565b600060019054906101000a900460ff16611aa8576040517f08c379a0000000000000000000000000000000000000000000000000000000008152600401611a9f906132ca565b60405180910390fd5b611ab282826121fe565b5050565b600060019054906101000a900460ff16611b05576040517f08c379a0000000000000000000000000000000000000000000000000000000008152600401611afc906132ca565b60405180910390fd5b611b0d61227f565b565b600060019054906101000a900460ff16611b5e576040517f08c379a0000000000000000000000000000000000000000000000000000000008152600401611b55906132ca565b60405180910390fd5b611b666122d8565b565b600060019054906101000a900460ff16611bb7576040517f08c379a0000000000000000000000000000000000000000000000000000000008152600401611bae906132ca565b60405180910390fd5b611bbf612339565b565b611bc96108bb565b15611c09576040517f08c379a0000000000000000000000000000000000000000000000000000000008152600401611c009061312a565b60405180910390fd5b6001609760006101000a81548160ff0219169083151502179055507f62e78cea01bee320cd4e420270b5ea74000d11b0c9f74754ebdbfc544b05a258611c4d61148f565b604051611c5a9190612f34565b60405180910390a1565b8173ffffffffffffffffffffffffffffffffffffffff168373ffffffffffffffffffffffffffffffffffffffff161415611cd3576040517f08c379a0000000000000000000000000000000000000000000000000000000008152600401611cca906130ea565b60405180910390fd5b8061010060008573ffffffffffffffffffffffffffffffffffffffff1673ffffffffffffffffffffffffffffffffffffffff16815260200190815260200160002060008473ffffffffffffffffffffffffffffffffffffffff1673ffffffffffffffffffffffffffffffffffffffff16815260200190815260200160002060006101000a81548160ff0219169083151502179055508173ffffffffffffffffffffffffffffffffffffffff168373ffffffffffffffffffffffffffffffffffffffff167f17307eab39ab6107e8899845ad3d59bd9653f200f220920489ca2b5937696c3183604051611dc59190612fd2565b60405180910390a3505050565b611ddd84848461162e565b611de9848484846123a5565b611e28576040517f08c379a0000000000000000000000000000000000000000000000000000000008152600401611e1f9061304a565b60405180910390fd5b50505050565b606060405180602001604052806000815250905090565b6060611e5082611423565b611e8f576040517f08c379a0000000000000000000000000000000000000000000000000000000008152600401611e869061326a565b60405180910390fd5b6000611e99611e2e565b90506000815111611eb95760405180602001604052806000815250611ee4565b80611ec38461253c565b604051602001611ed4929190612f10565b6040516020818303038152906040525b915050919050565b611ef46108bb565b611f33576040517f08c379a0000000000000000000000000000000000000000000000000000000008152600401611f2a9061302a565b60405180910390fd5b6000609760006101000a81548160ff0219169083151502179055507f5db9ee0a495bf2e6ff9c91a7834c1ba4fdd244a5e8aa4e537bd38aeae4b073aa611f7761148f565b604051611f849190612f34565b60405180910390a1565b6001816000016000828254019250508190555050565b600073ffffffffffffffffffffffffffffffffffffffff168273ffffffffffffffffffffffffffffffffffffffff161415612014576040517f08c379a000000000000000000000000000000000000000000000000000000000815260040161200b906131ea565b60405180910390fd5b61201d81611423565b1561205d576040517f08c379a0000000000000000000000000000000000000000000000000000000008152600401612054906130aa565b60405180910390fd5b6120696000838361217e565b600160fe60008473ffffffffffffffffffffffffffffffffffffffff1673ffffffffffffffffffffffffffffffffffffffff16815260200190815260200160002060008282546120b991906133be565b925050819055508160fd600083815260200190815260200160002060006101000a81548173ffffffffffffffffffffffffffffffffffffffff021916908373ffffffffffffffffffffffffffffffffffffffff160217905550808273ffffffffffffffffffffffffffffffffffffffff16600073ffffffffffffffffffffffffffffffffffffffff167fddf252ad1be2c89b69c2b068fc378daa952ba7f163c4a11628f55a4df523b3ef60405160405180910390a461217a600083836121d6565b5050565b6121866108bb565b156121c6576040517f08c379a00000000000000000000000000000000000000000000000000000000081526004016121bd9061312a565b60405180910390fd5b6121d183838361269d565b505050565b505050565b6000808273ffffffffffffffffffffffffffffffffffffffff163b119050919050565b600060019054906101000a900460ff1661224d576040517f08c379a0000000000000000000000000000000000000000000000000000000008152600401612244906132ca565b60405180910390fd5b8160fb90805190602001906122639291906126a2565b508060fc908051906020019061227a9291906126a2565b505050565b600060019054906101000a900460ff166122ce576040517f08c379a00000000000000000000000000000000000000000000000000000000081526004016122c5906132ca565b60405180910390fd5b6001606581905550565b600060019054906101000a900460ff16612327576040517f08c379a000000000000000000000000000000000000000000000000000000000815260040161231e906132ca565b60405180910390fd5b61233761233261148f565b6118a3565b565b600060019054906101000a900460ff16612388576040517f08c379a000000000000000000000000000000000000000000000000000000000815260040161237f906132ca565b60405180910390fd5b6000609760006101000a81548160ff021916908315150217905550565b60006123c68473ffffffffffffffffffffffffffffffffffffffff166121db565b1561252f578373ffffffffffffffffffffffffffffffffffffffff1663150b7a026123ef61148f565b8786866040518563ffffffff1660e01b81526004016124119493929190612f86565b602060405180830381600087803b15801561242b57600080fd5b505af192505050801561245c57506040513d601f19601f820116820180604052508101906124599190612a50565b60015b6124df573d806000811461248c576040519150601f19603f3d011682016040523d82523d6000602084013e612491565b606091505b506000815114156124d7576040517f08c379a00000000000000000000000000000000000000000000000000000000081526004016124ce9061304a565b60405180910390fd5b805181602001fd5b63150b7a0260e01b7bffffffffffffffffffffffffffffffffffffffffffffffffffffffff1916817bffffffffffffffffffffffffffffffffffffffffffffffffffffffff191614915050612534565b600190505b949350505050565b60606000821415612584576040518060400160405280600181526020017f30000000000000000000000000000000000000000000000000000000000000008152509050612698565b600082905060005b600082146125b657808061259f906137b2565b915050600a826125af9190613414565b915061258c565b60008167ffffffffffffffff8111156125d2576125d16138e8565b5b6040519080825280601f01601f1916602001820160405280156126045781602001600182028036833780820191505090505b5090505b600085146126915760018261261d9190613610565b9150600a8561262c91906137fb565b603061263891906133be565b60f81b81838151811061264e5761264d6138b9565b5b60200101907effffffffffffffffffffffffffffffffffffffffffffffffffffffffffffff1916908160001a905350600a8561268a9190613414565b9450612608565b8093505050505b919050565b505050565b8280546126ae9061374f565b90600052602060002090601f0160209004810192826126d05760008555612717565b82601f106126e957805160ff1916838001178555612717565b82800160010185558215612717579182015b828111156127165782518255916020019190600101906126fb565b5b5090506127249190612728565b5090565b5b80821115612741576000816000905550600101612729565b5090565b60006127586127538461334a565b613325565b9050828152602081018484840111156127745761277361391c565b5b61277f84828561370d565b509392505050565b60008135905061279681613f32565b92915050565b6000813590506127ab81613f49565b92915050565b6000815190506127c081613f49565b92915050565b6000813590506127d581613f60565b92915050565b6000815190506127ea81613f60565b92915050565b600082601f83011261280557612804613917565b5b8135612815848260208601612745565b91505092915050565b60008135905061282d81613f77565b92915050565b60006020828403121561284957612848613926565b5b600061285784828501612787565b91505092915050565b6000806040838503121561287757612876613926565b5b600061288585828601612787565b925050602061289685828601612787565b9150509250929050565b6000806000606084860312156128b9576128b8613926565b5b60006128c786828701612787565b93505060206128d886828701612787565b92505060406128e98682870161281e565b9150509250925092565b6000806000806080858703121561290d5761290c613926565b5b600061291b87828801612787565b945050602061292c87828801612787565b935050604061293d8782880161281e565b925050606085013567ffffffffffffffff81111561295e5761295d613921565b5b61296a878288016127f0565b91505092959194509250565b6000806040838503121561298d5761298c613926565b5b600061299b85828601612787565b92505060206129ac8582860161279c565b9150509250929050565b600080604083850312156129cd576129cc613926565b5b60006129db85828601612787565b92505060206129ec8582860161281e565b9150509250929050565b600060208284031215612a0c57612a0b613926565b5b6000612a1a848285016127b1565b91505092915050565b600060208284031215612a3957612a38613926565b5b6000612a47848285016127c6565b91505092915050565b600060208284031215612a6657612a65613926565b5b6000612a74848285016127db565b91505092915050565b600060208284031215612a9357612a92613926565b5b6000612aa18482850161281e565b91505092915050565b600080600060608486031215612ac357612ac2613926565b5b6000612ad18682870161281e565b9350506020612ae28682870161281e565b9250506040612af38682870161281e565b9150509250925092565b612b06816136c5565b82525050565b612b1581613644565b82525050565b612b2481613656565b82525050565b6000612b358261337b565b612b3f8185613391565b9350612b4f81856020860161371c565b612b588161392b565b840191505092915050565b612b6c816136d7565b82525050565b6000612b7d82613386565b612b8781856133a2565b9350612b9781856020860161371c565b612ba08161392b565b840191505092915050565b6000612bb682613386565b612bc081856133b3565b9350612bd081856020860161371c565b80840191505092915050565b6000612be96014836133a2565b9150612bf482613949565b602082019050919050565b6000612c0c6032836133a2565b9150612c1782613972565b604082019050919050565b6000612c2f6026836133a2565b9150612c3a826139c1565b604082019050919050565b6000612c526025836133a2565b9150612c5d82613a10565b604082019050919050565b6000612c75601c836133a2565b9150612c8082613a5f565b602082019050919050565b6000612c986024836133a2565b9150612ca382613a88565b604082019050919050565b6000612cbb6019836133a2565b9150612cc682613ad7565b602082019050919050565b6000612cde602c836133a2565b9150612ce982613b00565b604082019050919050565b6000612d016010836133a2565b9150612d0c82613b4f565b602082019050919050565b6000612d246038836133a2565b9150612d2f82613b78565b604082019050919050565b6000612d47602a836133a2565b9150612d5282613bc7565b604082019050919050565b6000612d6a6029836133a2565b9150612d7582613c16565b604082019050919050565b6000612d8d601c836133a2565b9150612d9882613c65565b602082019050919050565b6000612db0602e836133a2565b9150612dbb82613c8e565b604082019050919050565b6000612dd36020836133a2565b9150612dde82613cdd565b602082019050919050565b6000612df66031836133a2565b9150612e0182613d06565b604082019050919050565b6000612e19602c836133a2565b9150612e2482613d55565b604082019050919050565b6000612e3c6020836133a2565b9150612e4782613da4565b602082019050919050565b6000612e5f602f836133a2565b9150612e6a82613dcd565b604082019050919050565b6000612e826021836133a2565b9150612e8d82613e1c565b604082019050919050565b6000612ea56031836133a2565b9150612eb082613e6b565b604082019050919050565b6000612ec8602b836133a2565b9150612ed382613eba565b604082019050919050565b6000612eeb601f836133a2565b9150612ef682613f09565b602082019050919050565b612f0a816136ae565b82525050565b6000612f1c8285612bab565b9150612f288284612bab565b91508190509392505050565b6000602082019050612f496000830184612b0c565b92915050565b6000606082019050612f646000830186612afd565b612f716020830185612afd565b612f7e6040830184612f01565b949350505050565b6000608082019050612f9b6000830187612b0c565b612fa86020830186612b0c565b612fb56040830185612f01565b8181036060830152612fc78184612b2a565b905095945050505050565b6000602082019050612fe76000830184612b1b565b92915050565b60006020820190506130026000830184612b63565b92915050565b600060208201905081810360008301526130228184612b72565b905092915050565b6000602082019050818103600083015261304381612bdc565b9050919050565b6000602082019050818103600083015261306381612bff565b9050919050565b6000602082019050818103600083015261308381612c22565b9050919050565b600060208201905081810360008301526130a381612c45565b9050919050565b600060208201905081810360008301526130c381612c68565b9050919050565b600060208201905081810360008301526130e381612c8b565b9050919050565b6000602082019050818103600083015261310381612cae565b9050919050565b6000602082019050818103600083015261312381612cd1565b9050919050565b6000602082019050818103600083015261314381612cf4565b9050919050565b6000602082019050818103600083015261316381612d17565b9050919050565b6000602082019050818103600083015261318381612d3a565b9050919050565b600060208201905081810360008301526131a381612d5d565b9050919050565b600060208201905081810360008301526131c381612d80565b9050919050565b600060208201905081810360008301526131e381612da3565b9050919050565b6000602082019050818103600083015261320381612dc6565b9050919050565b6000602082019050818103600083015261322381612de9565b9050919050565b6000602082019050818103600083015261324381612e0c565b9050919050565b6000602082019050818103600083015261326381612e2f565b9050919050565b6000602082019050818103600083015261328381612e52565b9050919050565b600060208201905081810360008301526132a381612e75565b9050919050565b600060208201905081810360008301526132c381612e98565b9050919050565b600060208201905081810360008301526132e381612ebb565b9050919050565b6000602082019050818103600083015261330381612ede565b9050919050565b600060208201905061331f6000830184612f01565b92915050565b600061332f613340565b905061333b8282613781565b919050565b6000604051905090565b600067ffffffffffffffff821115613365576133646138e8565b5b61336e8261392b565b9050602081019050919050565b600081519050919050565b600081519050919050565b600082825260208201905092915050565b600082825260208201905092915050565b600081905092915050565b60006133c9826136ae565b91506133d4836136ae565b9250827fffffffffffffffffffffffffffffffffffffffffffffffffffffffffffffffff038211156134095761340861382c565b5b828201905092915050565b600061341f826136ae565b915061342a836136ae565b92508261343a5761343961385b565b5b828204905092915050565b6000808291508390505b600185111561348f5780860481111561346b5761346a61382c565b5b600185161561347a5780820291505b80810290506134888561393c565b945061344f565b94509492505050565b60006134a3826136ae565b91506134ae836136ae565b92506134db7fffffffffffffffffffffffffffffffffffffffffffffffffffffffffffffffff84846134e3565b905092915050565b6000826134f357600190506135af565b8161350157600090506135af565b8160018114613517576002811461352157613550565b60019150506135af565b60ff8411156135335761353261382c565b5b8360020a91508482111561354a5761354961382c565b5b506135af565b5060208310610133831016604e8410600b84101617156135855782820a9050838111156135805761357f61382c565b5b6135af565b6135928484846001613445565b925090508184048111156135a9576135a861382c565b5b81810290505b9392505050565b60006135c1826136ae565b91506135cc836136ae565b9250817fffffffffffffffffffffffffffffffffffffffffffffffffffffffffffffffff04831182151516156136055761360461382c565b5b828202905092915050565b600061361b826136ae565b9150613626836136ae565b9250828210156136395761363861382c565b5b828203905092915050565b600061364f8261368e565b9050919050565b60008115159050919050565b60007fffffffff0000000000000000000000000000000000000000000000000000000082169050919050565b600073ffffffffffffffffffffffffffffffffffffffff82169050919050565b6000819050919050565b600060ff82169050919050565b60006136d0826136e9565b9050919050565b60006136e2826136b8565b9050919050565b60006136f4826136fb565b9050919050565b60006137068261368e565b9050919050565b82818337600083830152505050565b60005b8381101561373a57808201518184015260208101905061371f565b83811115613749576000848401525b50505050565b6000600282049050600182168061376757607f821691505b6020821081141561377b5761377a61388a565b5b50919050565b61378a8261392b565b810181811067ffffffffffffffff821117156137a9576137a86138e8565b5b80604052505050565b60006137bd826136ae565b91507fffffffffffffffffffffffffffffffffffffffffffffffffffffffffffffffff8214156137f0576137ef61382c565b5b600182019050919050565b6000613806826136ae565b9150613811836136ae565b9250826138215761382061385b565b5b828206905092915050565b7f4e487b7100000000000000000000000000000000000000000000000000000000600052601160045260246000fd5b7f4e487b7100000000000000000000000000000000000000000000000000000000600052601260045260246000fd5b7f4e487b7100000000000000000000000000000000000000000000000000000000600052602260045260246000fd5b7f4e487b7100000000000000000000000000000000000000000000000000000000600052603260045260246000fd5b7f4e487b7100000000000000000000000000000000000000000000000000000000600052604160045260246000fd5b600080fd5b600080fd5b600080fd5b600080fd5b6000601f19601f8301169050919050565b60008160011c9050919050565b7f5061757361626c653a206e6f7420706175736564000000000000000000000000600082015250565b7f4552433732313a207472616e7366657220746f206e6f6e20455243373231526560008201527f63656976657220696d706c656d656e7465720000000000000000000000000000602082015250565b7f4f776e61626c653a206e6577206f776e657220697320746865207a65726f206160008201527f6464726573730000000000000000000000000000000000000000000000000000602082015250565b7f4552433732313a207472616e736665722066726f6d20696e636f72726563742060008201527f6f776e6572000000000000000000000000000000000000000000000000000000602082015250565b7f4552433732313a20746f6b656e20616c7265616479206d696e74656400000000600082015250565b7f4552433732313a207472616e7366657220746f20746865207a65726f2061646460008201527f7265737300000000000000000000000000000000000000000000000000000000602082015250565b7f4552433732313a20617070726f766520746f2063616c6c657200000000000000600082015250565b7f4552433732313a206f70657261746f7220717565727920666f72206e6f6e657860008201527f697374656e7420746f6b656e0000000000000000000000000000000000000000602082015250565b7f5061757361626c653a2070617573656400000000000000000000000000000000600082015250565b7f4552433732313a20617070726f76652063616c6c6572206973206e6f74206f7760008201527f6e6572206e6f7220617070726f76656420666f7220616c6c0000000000000000602082015250565b7f4552433732313a2062616c616e636520717565727920666f7220746865207a6560008201527f726f206164647265737300000000000000000000000000000000000000000000602082015250565b7f4552433732313a206f776e657220717565727920666f72206e6f6e657869737460008201527f656e7420746f6b656e0000000000000000000000000000000000000000000000602082015250565b7f43616e6e6f74206d696e74206d6f7265207468616e20737570706c7900000000600082015250565b7f496e697469616c697a61626c653a20636f6e747261637420697320616c72656160008201527f647920696e697469616c697a6564000000000000000000000000000000000000602082015250565b7f4552433732313a206d696e7420746f20746865207a65726f2061646472657373600082015250565b7f45524337323155524953746f726167653a2055524920717565727920666f722060008201527f6e6f6e6578697374656e7420746f6b656e000000000000000000000000000000602082015250565b7f4552433732313a20617070726f76656420717565727920666f72206e6f6e657860008201527f697374656e7420746f6b656e0000000000000000000000000000000000000000602082015250565b7f4f776e61626c653a2063616c6c6572206973206e6f7420746865206f776e6572600082015250565b7f4552433732314d657461646174613a2055524920717565727920666f72206e6f60008201527f6e6578697374656e7420746f6b656e0000000000000000000000000000000000602082015250565b7f4552433732313a20617070726f76616c20746f2063757272656e74206f776e6560008201527f7200000000000000000000000000000000000000000000000000000000000000602082015250565b7f4552433732313a207472616e736665722063616c6c6572206973206e6f74206f60008201527f776e6572206e6f7220617070726f766564000000000000000000000000000000602082015250565b7f496e697469616c697a61626c653a20636f6e7472616374206973206e6f74206960008201527f6e697469616c697a696e67000000000000000000000000000000000000000000602082015250565b7f5265656e7472616e637947756172643a207265656e7472616e742063616c6c00600082015250565b613f3b81613644565b8114613f4657600080fd5b50565b613f5281613656565b8114613f5d57600080fd5b50565b613f6981613662565b8114613f7457600080fd5b50565b613f80816136ae565b8114613f8b57600080fd5b5056fea2646970667358221220e1c526ddb05bea34d7f16357cb0f79e0c9960330c224882088fdc0fbbe252beb64736f6c63430008070033",
  "linkReferences": {},
  "deployedLinkReferences": {}
}