{
  "_format": "hh-sol-artifact-1",
  "contractName": "IVYCoin",
  "sourceName": "contracts/IVYCoin.sol",
  "abi": [
    {
      "inputs": [],
      "stateMutability": "nonpayable",
      "type": "constructor"
    },
    {
      "anonymous": false,
      "inputs": [
        {
          "indexed": true,
          "internalType": "address",
          "name": "owner",
          "type": "address"
        },
        {
          "indexed": true,
          "internalType": "address",
          "name": "spender",
          "type": "address"
        },
        {
          "indexed": false,
          "internalType": "uint256",
          "name": "value",
          "type": "uint256"
        }
      ],
      "name": "Approval",
      "type": "event"
    },
    {
      "anonymous": false,
      "inputs": [
        {
          "indexed": true,
          "internalType": "address",
          "name": "from",
          "type": "address"
        },
        {
          "indexed": true,
          "internalType": "address",
          "name": "to",
          "type": "address"
        },
        {
          "indexed": false,
          "internalType": "uint256",
          "name": "value",
          "type": "uint256"
        }
      ],
      "name": "Transfer",
      "type": "event"
    },
    {
      "inputs": [
        {
          "internalType": "address",
          "name": "owner",
          "type": "address"
        },
        {
          "internalType": "address",
          "name": "spender",
          "type": "address"
        }
      ],
      "name": "allowance",
      "outputs": [
        {
          "internalType": "uint256",
          "name": "",
          "type": "uint256"
        }
      ],
      "stateMutability": "view",
      "type": "function"
    },
    {
      "inputs": [
        {
          "internalType": "address",
          "name": "spender",
          "type": "address"
        },
        {
          "internalType": "uint256",
          "name": "amount",
          "type": "uint256"
        }
      ],
      "name": "approve",
      "outputs": [
        {
          "internalType": "bool",
          "name": "",
          "type": "bool"
        }
      ],
      "stateMutability": "nonpayable",
      "type": "function"
    },
    {
      "inputs": [
        {
          "internalType": "address",
          "name": "account",
          "type": "address"
        }
      ],
      "name": "balanceOf",
      "outputs": [
        {
          "internalType": "uint256",
          "name": "",
          "type": "uint256"
        }
      ],
      "stateMutability": "view",
      "type": "function"
    },
    {
      "inputs": [
        {
          "internalType": "address",
          "name": "account",
          "type": "address"
        },
        {
          "internalType": "uint256",
          "name": "amount",
          "type": "uint256"
        }
      ],
      "name": "burn",
      "outputs": [],
      "stateMutability": "payable",
      "type": "function"
    },
    {
      "inputs": [],
      "name": "decimals",
      "outputs": [
        {
          "internalType": "uint8",
          "name": "",
          "type": "uint8"
        }
      ],
      "stateMutability": "view",
      "type": "function"
    },
    {
      "inputs": [
        {
          "internalType": "address",
          "name": "spender",
          "type": "address"
        },
        {
          "internalType": "uint256",
          "name": "subtractedValue",
          "type": "uint256"
        }
      ],
      "name": "decreaseAllowance",
      "outputs": [
        {
          "internalType": "bool",
          "name": "",
          "type": "bool"
        }
      ],
      "stateMutability": "nonpayable",
      "type": "function"
    },
    {
      "inputs": [
        {
          "internalType": "address",
          "name": "spender",
          "type": "address"
        },
        {
          "internalType": "uint256",
          "name": "addedValue",
          "type": "uint256"
        }
      ],
      "name": "increaseAllowance",
      "outputs": [
        {
          "internalType": "bool",
          "name": "",
          "type": "bool"
        }
      ],
      "stateMutability": "nonpayable",
      "type": "function"
    },
    {
      "inputs": [],
      "name": "mint",
      "outputs": [],
      "stateMutability": "payable",
      "type": "function"
    },
    {
      "inputs": [],
      "name": "name",
      "outputs": [
        {
          "internalType": "string",
          "name": "",
          "type": "string"
        }
      ],
      "stateMutability": "view",
      "type": "function"
    },
    {
      "inputs": [],
      "name": "symbol",
      "outputs": [
        {
          "internalType": "string",
          "name": "",
          "type": "string"
        }
      ],
      "stateMutability": "view",
      "type": "function"
    },
    {
      "inputs": [],
      "name": "totalSupply",
      "outputs": [
        {
          "internalType": "uint256",
          "name": "",
          "type": "uint256"
        }
      ],
      "stateMutability": "view",
      "type": "function"
    },
    {
      "inputs": [
        {
          "internalType": "address",
          "name": "to",
          "type": "address"
        },
        {
          "internalType": "uint256",
          "name": "amount",
          "type": "uint256"
        }
      ],
      "name": "transfer",
      "outputs": [
        {
          "internalType": "bool",
          "name": "",
          "type": "bool"
        }
      ],
      "stateMutability": "nonpayable",
      "type": "function"
    },
    {
      "inputs": [
        {
          "internalType": "address",
          "name": "from",
          "type": "address"
        },
        {
          "internalType": "address",
          "name": "to",
          "type": "address"
        },
        {
          "internalType": "uint256",
          "name": "amount",
          "type": "uint256"
        }
      ],
      "name": "transferFrom",
      "outputs": [
        {
          "internalType": "bool",
          "name": "",
          "type": "bool"
        }
      ],
      "stateMutability": "nonpayable",
      "type": "function"
    }
  ],
  "bytecode": "0x60806040523480156200001157600080fd5b506040518060400160405280600781526020017f495659436f696e000000000000000000000000000000000000000000000000008152506040518060400160405280600381526020017f495659000000000000000000000000000000000000000000000000000000000081525081600390805190602001906200009692919062000256565b508060049080519060200190620000af92919062000256565b505050620000cd33683635c9adc5dea00000620000d360201b60201c565b620004b2565b600073ffffffffffffffffffffffffffffffffffffffff168273ffffffffffffffffffffffffffffffffffffffff16141562000146576040517f08c379a00000000000000000000000000000000000000000000000000000000081526004016200013d906200033e565b60405180910390fd5b6200015a600083836200024c60201b60201c565b80600260008282546200016e91906200038e565b92505081905550806000808473ffffffffffffffffffffffffffffffffffffffff1673ffffffffffffffffffffffffffffffffffffffff1681526020019081526020016000206000828254620001c591906200038e565b925050819055508173ffffffffffffffffffffffffffffffffffffffff16600073ffffffffffffffffffffffffffffffffffffffff167fddf252ad1be2c89b69c2b068fc378daa952ba7f163c4a11628f55a4df523b3ef836040516200022c919062000360565b60405180910390a362000248600083836200025160201b60201c565b5050565b505050565b505050565b8280546200026490620003f5565b90600052602060002090601f016020900481019282620002885760008555620002d4565b82601f10620002a357805160ff1916838001178555620002d4565b82800160010185558215620002d4579182015b82811115620002d3578251825591602001919060010190620002b6565b5b509050620002e39190620002e7565b5090565b5b8082111562000302576000816000905550600101620002e8565b5090565b600062000315601f836200037d565b9150620003228262000489565b602082019050919050565b6200033881620003eb565b82525050565b60006020820190508181036000830152620003598162000306565b9050919050565b60006020820190506200037760008301846200032d565b92915050565b600082825260208201905092915050565b60006200039b82620003eb565b9150620003a883620003eb565b9250827fffffffffffffffffffffffffffffffffffffffffffffffffffffffffffffffff03821115620003e057620003df6200042b565b5b828201905092915050565b6000819050919050565b600060028204905060018216806200040e57607f821691505b602082108114156200042557620004246200045a565b5b50919050565b7f4e487b7100000000000000000000000000000000000000000000000000000000600052601160045260246000fd5b7f4e487b7100000000000000000000000000000000000000000000000000000000600052602260045260246000fd5b7f45524332303a206d696e7420746f20746865207a65726f206164647265737300600082015250565b61185480620004c26000396000f3fe6080604052600436106100c25760003560e01c8063395093511161007f5780639dc29fac116100595780639dc29fac14610271578063a457c2d71461028d578063a9059cbb146102ca578063dd62ed3e14610307576100c2565b806339509351146101cc57806370a082311461020957806395d89b4114610246576100c2565b806306fdde03146100c7578063095ea7b3146100f25780631249c58b1461012f57806318160ddd1461013957806323b872dd14610164578063313ce567146101a1575b600080fd5b3480156100d357600080fd5b506100dc610344565b6040516100e991906111ba565b60405180910390f35b3480156100fe57600080fd5b5061011960048036038101906101149190610f9b565b6103d6565b604051610126919061119f565b60405180910390f35b6101376103f9565b005b34801561014557600080fd5b5061014e61040e565b60405161015b919061131c565b60405180910390f35b34801561017057600080fd5b5061018b60048036038101906101869190610f48565b610418565b604051610198919061119f565b60405180910390f35b3480156101ad57600080fd5b506101b6610447565b6040516101c39190611337565b60405180910390f35b3480156101d857600080fd5b506101f360048036038101906101ee9190610f9b565b610450565b604051610200919061119f565b60405180910390f35b34801561021557600080fd5b50610230600480360381019061022b9190610edb565b610487565b60405161023d919061131c565b60405180910390f35b34801561025257600080fd5b5061025b6104cf565b60405161026891906111ba565b60405180910390f35b61028b60048036038101906102869190610f9b565b610561565b005b34801561029957600080fd5b506102b460048036038101906102af9190610f9b565b61056f565b6040516102c1919061119f565b60405180910390f35b3480156102d657600080fd5b506102f160048036038101906102ec9190610f9b565b6105e6565b6040516102fe919061119f565b60405180910390f35b34801561031357600080fd5b5061032e60048036038101906103299190610f08565b610609565b60405161033b919061131c565b60405180910390f35b60606003805461035390611480565b80601f016020809104026020016040519081016040528092919081815260200182805461037f90611480565b80156103cc5780601f106103a1576101008083540402835291602001916103cc565b820191906000526020600020905b8154815290600101906020018083116103af57829003601f168201915b5050505050905090565b6000806103e1610690565b90506103ee818585610698565b600191505092915050565b61040c3368056bc75e2d63100000610863565b565b6000600254905090565b600080610423610690565b90506104308582856109c3565b61043b858585610a4f565b60019150509392505050565b60006012905090565b60008061045b610690565b905061047c81858561046d8589610609565b610477919061136e565b610698565b600191505092915050565b60008060008373ffffffffffffffffffffffffffffffffffffffff1673ffffffffffffffffffffffffffffffffffffffff168152602001908152602001600020549050919050565b6060600480546104de90611480565b80601f016020809104026020016040519081016040528092919081815260200182805461050a90611480565b80156105575780601f1061052c57610100808354040283529160200191610557565b820191906000526020600020905b81548152906001019060200180831161053a57829003601f168201915b5050505050905090565b61056b8282610cd0565b5050565b60008061057a610690565b905060006105888286610609565b9050838110156105cd576040517f08c379a00000000000000000000000000000000000000000000000000000000081526004016105c4906112dc565b60405180910390fd5b6105da8286868403610698565b60019250505092915050565b6000806105f1610690565b90506105fe818585610a4f565b600191505092915050565b6000600160008473ffffffffffffffffffffffffffffffffffffffff1673ffffffffffffffffffffffffffffffffffffffff16815260200190815260200160002060008373ffffffffffffffffffffffffffffffffffffffff1673ffffffffffffffffffffffffffffffffffffffff16815260200190815260200160002054905092915050565b600033905090565b600073ffffffffffffffffffffffffffffffffffffffff168373ffffffffffffffffffffffffffffffffffffffff161415610708576040517f08c379a00000000000000000000000000000000000000000000000000000000081526004016106ff906112bc565b60405180910390fd5b600073ffffffffffffffffffffffffffffffffffffffff168273ffffffffffffffffffffffffffffffffffffffff161415610778576040517f08c379a000000000000000000000000000000000000000000000000000000000815260040161076f9061121c565b60405180910390fd5b80600160008573ffffffffffffffffffffffffffffffffffffffff1673ffffffffffffffffffffffffffffffffffffffff16815260200190815260200160002060008473ffffffffffffffffffffffffffffffffffffffff1673ffffffffffffffffffffffffffffffffffffffff168152602001908152602001600020819055508173ffffffffffffffffffffffffffffffffffffffff168373ffffffffffffffffffffffffffffffffffffffff167f8c5be1e5ebec7d5bd14f71427d1e84f3dd0314c0f7b2291e5b200ac8c7c3b92583604051610856919061131c565b60405180910390a3505050565b600073ffffffffffffffffffffffffffffffffffffffff168273ffffffffffffffffffffffffffffffffffffffff1614156108d3576040517f08c379a00000000000000000000000000000000000000000000000000000000081526004016108ca906112fc565b60405180910390fd5b6108df60008383610ea7565b80600260008282546108f1919061136e565b92505081905550806000808473ffffffffffffffffffffffffffffffffffffffff1673ffffffffffffffffffffffffffffffffffffffff1681526020019081526020016000206000828254610946919061136e565b925050819055508173ffffffffffffffffffffffffffffffffffffffff16600073ffffffffffffffffffffffffffffffffffffffff167fddf252ad1be2c89b69c2b068fc378daa952ba7f163c4a11628f55a4df523b3ef836040516109ab919061131c565b60405180910390a36109bf60008383610eac565b5050565b60006109cf8484610609565b90507fffffffffffffffffffffffffffffffffffffffffffffffffffffffffffffffff8114610a495781811015610a3b576040517f08c379a0000000000000000000000000000000000000000000000000000000008152600401610a329061123c565b60405180910390fd5b610a488484848403610698565b5b50505050565b600073ffffffffffffffffffffffffffffffffffffffff168373ffffffffffffffffffffffffffffffffffffffff161415610abf576040517f08c379a0000000000000000000000000000000000000000000000000000000008152600401610ab69061129c565b60405180910390fd5b600073ffffffffffffffffffffffffffffffffffffffff168273ffffffffffffffffffffffffffffffffffffffff161415610b2f576040517f08c379a0000000000000000000000000000000000000000000000000000000008152600401610b26906111dc565b60405180910390fd5b610b3a838383610ea7565b60008060008573ffffffffffffffffffffffffffffffffffffffff1673ffffffffffffffffffffffffffffffffffffffff16815260200190815260200160002054905081811015610bc0576040517f08c379a0000000000000000000000000000000000000000000000000000000008152600401610bb79061125c565b60405180910390fd5b8181036000808673ffffffffffffffffffffffffffffffffffffffff1673ffffffffffffffffffffffffffffffffffffffff16815260200190815260200160002081905550816000808573ffffffffffffffffffffffffffffffffffffffff1673ffffffffffffffffffffffffffffffffffffffff1681526020019081526020016000206000828254610c53919061136e565b925050819055508273ffffffffffffffffffffffffffffffffffffffff168473ffffffffffffffffffffffffffffffffffffffff167fddf252ad1be2c89b69c2b068fc378daa952ba7f163c4a11628f55a4df523b3ef84604051610cb7919061131c565b60405180910390a3610cca848484610eac565b50505050565b600073ffffffffffffffffffffffffffffffffffffffff168273ffffffffffffffffffffffffffffffffffffffff161415610d40576040517f08c379a0000000000000000000000000000000000000000000000000000000008152600401610d379061127c565b60405180910390fd5b610d4c82600083610ea7565b60008060008473ffffffffffffffffffffffffffffffffffffffff1673ffffffffffffffffffffffffffffffffffffffff16815260200190815260200160002054905081811015610dd2576040517f08c379a0000000000000000000000000000000000000000000000000000000008152600401610dc9906111fc565b60405180910390fd5b8181036000808573ffffffffffffffffffffffffffffffffffffffff1673ffffffffffffffffffffffffffffffffffffffff168152602001908152602001600020819055508160026000828254610e2991906113c4565b92505081905550600073ffffffffffffffffffffffffffffffffffffffff168373ffffffffffffffffffffffffffffffffffffffff167fddf252ad1be2c89b69c2b068fc378daa952ba7f163c4a11628f55a4df523b3ef84604051610e8e919061131c565b60405180910390a3610ea283600084610eac565b505050565b505050565b505050565b600081359050610ec0816117f0565b92915050565b600081359050610ed581611807565b92915050565b600060208284031215610ef157610ef0611510565b5b6000610eff84828501610eb1565b91505092915050565b60008060408385031215610f1f57610f1e611510565b5b6000610f2d85828601610eb1565b9250506020610f3e85828601610eb1565b9150509250929050565b600080600060608486031215610f6157610f60611510565b5b6000610f6f86828701610eb1565b9350506020610f8086828701610eb1565b9250506040610f9186828701610ec6565b9150509250925092565b60008060408385031215610fb257610fb1611510565b5b6000610fc085828601610eb1565b9250506020610fd185828601610ec6565b9150509250929050565b610fe48161140a565b82525050565b6000610ff582611352565b610fff818561135d565b935061100f81856020860161144d565b61101881611515565b840191505092915050565b600061103060238361135d565b915061103b82611526565b604082019050919050565b600061105360228361135d565b915061105e82611575565b604082019050919050565b600061107660228361135d565b9150611081826115c4565b604082019050919050565b6000611099601d8361135d565b91506110a482611613565b602082019050919050565b60006110bc60268361135d565b91506110c78261163c565b604082019050919050565b60006110df60218361135d565b91506110ea8261168b565b604082019050919050565b600061110260258361135d565b915061110d826116da565b604082019050919050565b600061112560248361135d565b915061113082611729565b604082019050919050565b600061114860258361135d565b915061115382611778565b604082019050919050565b600061116b601f8361135d565b9150611176826117c7565b602082019050919050565b61118a81611436565b82525050565b61119981611440565b82525050565b60006020820190506111b46000830184610fdb565b92915050565b600060208201905081810360008301526111d48184610fea565b905092915050565b600060208201905081810360008301526111f581611023565b9050919050565b6000602082019050818103600083015261121581611046565b9050919050565b6000602082019050818103600083015261123581611069565b9050919050565b600060208201905081810360008301526112558161108c565b9050919050565b60006020820190508181036000830152611275816110af565b9050919050565b60006020820190508181036000830152611295816110d2565b9050919050565b600060208201905081810360008301526112b5816110f5565b9050919050565b600060208201905081810360008301526112d581611118565b9050919050565b600060208201905081810360008301526112f58161113b565b9050919050565b600060208201905081810360008301526113158161115e565b9050919050565b60006020820190506113316000830184611181565b92915050565b600060208201905061134c6000830184611190565b92915050565b600081519050919050565b600082825260208201905092915050565b600061137982611436565b915061138483611436565b9250827fffffffffffffffffffffffffffffffffffffffffffffffffffffffffffffffff038211156113b9576113b86114b2565b5b828201905092915050565b60006113cf82611436565b91506113da83611436565b9250828210156113ed576113ec6114b2565b5b828203905092915050565b600061140382611416565b9050919050565b60008115159050919050565b600073ffffffffffffffffffffffffffffffffffffffff82169050919050565b6000819050919050565b600060ff82169050919050565b60005b8381101561146b578082015181840152602081019050611450565b8381111561147a576000848401525b50505050565b6000600282049050600182168061149857607f821691505b602082108114156114ac576114ab6114e1565b5b50919050565b7f4e487b7100000000000000000000000000000000000000000000000000000000600052601160045260246000fd5b7f4e487b7100000000000000000000000000000000000000000000000000000000600052602260045260246000fd5b600080fd5b6000601f19601f8301169050919050565b7f45524332303a207472616e7366657220746f20746865207a65726f206164647260008201527f6573730000000000000000000000000000000000000000000000000000000000602082015250565b7f45524332303a206275726e20616d6f756e7420657863656564732062616c616e60008201527f6365000000000000000000000000000000000000000000000000000000000000602082015250565b7f45524332303a20617070726f766520746f20746865207a65726f20616464726560008201527f7373000000000000000000000000000000000000000000000000000000000000602082015250565b7f45524332303a20696e73756666696369656e7420616c6c6f77616e6365000000600082015250565b7f45524332303a207472616e7366657220616d6f756e742065786365656473206260008201527f616c616e63650000000000000000000000000000000000000000000000000000602082015250565b7f45524332303a206275726e2066726f6d20746865207a65726f2061646472657360008201527f7300000000000000000000000000000000000000000000000000000000000000602082015250565b7f45524332303a207472616e736665722066726f6d20746865207a65726f20616460008201527f6472657373000000000000000000000000000000000000000000000000000000602082015250565b7f45524332303a20617070726f76652066726f6d20746865207a65726f2061646460008201527f7265737300000000000000000000000000000000000000000000000000000000602082015250565b7f45524332303a2064656372656173656420616c6c6f77616e63652062656c6f7760008201527f207a65726f000000000000000000000000000000000000000000000000000000602082015250565b7f45524332303a206d696e7420746f20746865207a65726f206164647265737300600082015250565b6117f9816113f8565b811461180457600080fd5b50565b61181081611436565b811461181b57600080fd5b5056fea2646970667358221220e95f896cc6445db216aabe9c77f1b8f51f2e5455c2be4a0a7b7c8e801ce44f6164736f6c63430008070033",
  "linkReferences": {},
  "deployedLinkReferences": {}
}